:100000000C94E3010C940E020C940E020C940E025C
:100010000C940E020C940E020C940E020C940E0220
:100020000C940E020C940E020C940E020C940E0210
:100030000C940E020C940E020C940E020C940E0200
:100040000C940E020C94D52E0C94D92B0C94CF2B1F
:100050000C940E020C9447300C94DD300C940E027C
:100060000C940E020C940E020C940E020C940E02D0
:100070000C940E020C940E020C940E020C940E02C0
:100080000C9480300C942A310C940E020C940E02C5
:100090000C940E023C3F786D6C2076657273696F2C
:1000A0006E3D22312E302220656E636F64696E676B
:1000B0003D225554462D38223F3E0A3C6364693E3A
:1000C0000A3C6964656E74696669636174696F6E20
:1000D0003E0A3C6D616E7566616374757265723E51
:1000E0005261696C7374617273204C696D697465D7
:1000F000643C2F6D616E7566616374757265723EE6
:100100000A3C6D6F64656C3E496F3C2F6D6F646592
:100110006C3E0A3C68617264776172655665727301
:10012000696F6E3E312E303C2F6861726477617268
:100130006556657273696F6E3E0A3C736F667477BD
:1001400061726556657273696F6E3E312E303C2F59
:10015000736F66747761726556657273696F6E3E10
:100160000A3C2F6964656E74696669636174696FBE
:100170006E3E0A3C7365676D656E74206F726967C9
:10018000696E3D2230222073706163653D2230220A
:100190003E0A3C67726F7570206F66667365743DCA
:1001A000223022207265706C69636174696F6E3DE4
:1001B0002238223E0A3C6E616D653E50726F647556
:1001C000636564204576656E74733C2F6E616D6562
:1001D0003E0A3C6465736372697074696F6E3E5465
:1001E0006865204576656E7449447320666F722099
:1001F000746865206F7574707574733C2F646573D3
:100200006372697074696F6E3E0A3C6576656E74E0
:1002100069642F3E0A3C6576656E7469642F3E0AF8
:100220003C2F67726F75703E0A3C67726F75702065
:100230007265706C69636174696F6E3D2238223E2D
:100240000A3C6E616D653E436F6E73756D6564202B
:100250004576656E74733C2F6E616D653E0A3C6435
:1002600065736372697074696F6E3E54686520458A
:1002700076656E7449447320666F722074686520D9
:10028000696E707574733C2F646573637269707402
:10029000696F6E3E0A3C6576656E7469642F3E0A2E
:1002A0003C6576656E7469642F3E0A3C2F67726FF9
:1002B00075703E0A3C2F7365676D656E743E0A3C2F
:1002C0002F6364693E00015261696C7374617273DB
:1002D000204C696D697465640A496F0A312E300AD1
:1002E000312E30007E6E7F620C37260C37120C37B1
:1002F0000E0C37060C37020C37000C3700002100BB
:10030000240027002A002D003000330000002200C6
:10031000250028002B002E003100340000002000B2
:100320002300260029002C002F00320001010101CA
:100330000101010103030303030303030202020299
:10034000020202020404040404070704050505056B
:100350000505050506060606060606060707010248
:10036000040810204080010204081020408001028F
:1003700004081020408001020408100810800102C7
:10038000040810204080010204081020408001026F
:10039000000000000000000000000000000000005D
:1003A000000000000000000000000000000000004D
:1003B000000000000000000000000000000000003D
:1003C00000001E031F3211241FBECFEFD0E1DEBF9D
:1003D000CDBF11E0A0E0B1E0EAEAF8E600E00BBF33
:1003E00002C007900D92A23BB107D9F71BBE15E0E2
:1003F000A2EBB1E001C01D92A03BB107E1F713E011
:10040000C6ECD3E004C02297FE010E944F34C23CE8
:10041000D107C9F70E94B5320C9453340C940000F4
:10042000CF93DF93BC018230910510F462E070E05D
:10043000A091AE05B091AF05ED01E0E0F0E040E045
:1004400050E021C0888199818617970769F48A81D5
:100450009B81309719F09383828304C09093AF05FA
:100460008093AE05FE0134C06817790738F4411552
:10047000510519F08417950708F4AC01FE018A8133
:100480009B819C01E9012097E9F641155105A9F1ED
:10049000CA01861B970B049708F4BA01E0E0F0E06C
:1004A0002AC08D919C91119784179507F9F46417D0
:1004B000750781F412968D919C911397309719F0DE
:1004C0009383828304C09093AF058093AE05FD01B2
:1004D00032964CC0CA01861B970BFD01E80FF91F2D
:1004E0006193719302978D939C9340C0FD0182812B
:1004F00093819C01D9011097A1F68091AC05909150
:10050000AD05892B41F48091380190913901909388
:10051000AD058093AC0540913A0150913B014115E6
:10052000510541F44DB75EB7809136019091370186
:10053000481B590B2091AC053091AD05CA01821BB7
:10054000930B8617970780F0AB014E5F5F4F8417C0
:10055000950750F0420F531F5093AD054093AC05E3
:10056000F9016193719302C0E0E0F0E0CF01DF9107
:10057000CF910895CF93DF93009709F450C0EC0119
:1005800022971B821A82A091AE05B091AF051097F9
:1005900009F140E050E0AC17BD0708F1BB83AA8326
:1005A000FE0121913191E20FF31FAE17BF0779F4DD
:1005B0008D919C911197280F391F2E5F3F4F3983E2
:1005C000288312968D919C9113979B838A83411562
:1005D000510571F4D093AF05C093AE0520C01296BB
:1005E0008D919C911397AD01009711F0DC01D3CF51
:1005F000FA01D383C28321913191E20FF31FCE1709
:10060000DF0769F488819981280F391F2E5F3F4FDA
:10061000FA01318320838A819B8193838283DF91D6
:10062000CF910895FC0105900020E9F78095909501
:100630008E0F9F1F089580E0089508951092B901CC
:100640001092B8011092BA011092B2011092B30147
:100650001092B4011092B5011092B6011092B70138
:10066000EBEBF1E010861082118212821382148269
:10067000158216821782399682E0EB3DF80791F7D2
:100680001092DE021092DD0282E791E09093DC028C
:100690008093DB021092F4021092F3021092F502A2
:1006A0001092ED021092EE021092EF021092F00200
:1006B0001092F1021092F2021092FD021092FC02CE
:1006C0001092FE021092F6021092F7021092F802B7
:1006D0001092F9021092FA021092FB021092150386
:1006E000109214031092160310920E0310920F032F
:1006F0001092100310921103109212031092130320
:1007000010921E0310921D0310921F0310921703E4
:10071000109218031092190310921A0310921B03DF
:1007200010921C031092210310922C0310922B03A1
:10073000109229031092280310922A031092390371
:1007400010924503109244031092460310923E0308
:1007500010923F0310924003109241031092420303
:100760001092430310924B0388E591E090934D0360
:1007700080934C0310925C0381E080935D0380932F
:100780005E0310925F0310926003E1E6F3E088E0FD
:1007900081938F5F8031E1F788E991E090936A035C
:1007A0008093690381E080937103809372031092B8
:1007B00073031092740310927503109276031092D3
:1007C00077031092780389E590E00E9410028093ED
:1007D000790390937A0389E590E00E941002809358
:1007E0007B0390937C038AE491E090936A03809367
:1007F000690380E491E09093800380937F0388E60F
:1008000091E090939A03809399031092CB031092F6
:10081000CA031092CC031092C4031092C503109225
:10082000C6031092C7031092C8031092C903109216
:10083000D4031092D3031092D5031092CD031092DB
:10084000CE031092CF031092D0031092D1031092D6
:10085000D20387ED93E060E340E00E94471083EF0E
:1008600093E061E340E00E94471008958BED92E031
:100870000E946C2208950F931F93CF93DF938C01F6
:10088000C0E0D0E0BE016650704F8FE094E00E945F
:10089000F910F801EC0FFD1F80832196C630D105B9
:1008A00089F7F80180818F3F81F481818F3F69F45E
:1008B00082818F3F51F483818F3F39F484818F3F50
:1008C00021F485818F3F09F4FFCFDF91CF911F91F4
:1008D0000F910895EF92FF920F931F9300E0802FE6
:1008E00061E00E94D22F802F60E00E94FE2F0F5FF8
:1008F0000830A9F7802F60E00E94D22F802F61E09E
:100900000E94FE2F0F5F0031A9F782EBE82E81E0F5
:10091000F82EC7010E943B040BED12E0C8010E94B3
:1009200020231093510300935003F0925303E0925D
:1009300052038CE493E06BEB71E040E20E940F0EF7
:1009400089E693E0B801A7012CE433E00E94450852
:100950008FE793E0B801A7012CE433E00E94ED0497
:1009600089E993E0B801A7010E94A00EC8016CE4D8
:1009700073E00E94B11CC80169E673E00E94B11CDB
:10098000C8016FE773E00E94B11CC80169E973E018
:100990000E94B11C1F910F91FF90EF900895DC0110
:1009A0001496ED91FC911597A081B18150962D91EF
:1009B0003C915197CF01F90109950895FC01868971
:1009C00097890E94D50C64E670E080E090E00E9478
:1009D0002B2FE0E0F0E009950895EF92FF920F933E
:1009E0001F938C01FC0175836483578346838FEFCB
:1009F00082878387158A1186378B268B97EDE92EA0
:100A000093E0F92EC70140E050E060E070E00E9402
:100A10002410C7010E944F108091F203F8018487CF
:100A200083EFE82E83E0F82EC7014FEF50E06FEF21
:100A300070E00E942410C7010E944F1080910E04A4
:100A4000F8018587868997894596918F808F1686CC
:100A5000128A1F910F91FF90EF900895EF92FF92ED
:100A60001F93CF93DF937C01162F87ED93E040E037
:100A700050E060E070E00E94241083EF93E041E0DA
:100A800050E060E070E00E942410112311F410E0A7
:100A900017C0C0E0D0E0D70156968D919C91579732
:100AA000BE0140E00E948329F70186899789BE0133
:100AB00040E00E9467292196C032D10561F7E7CF57
:100AC000812F60E00E94FE2F1F5F1830C9F78FEF63
:100AD000D7011A968C931A971B968C931B97569650
:100AE000ED91FC915797108A18961C92DF91CF9147
:100AF0001F91FF90EF900895EF92FF920F931F9335
:100B0000CF93DF93EC01EE81FF81309709F4B6C2F9
:100B10008085882309F4B2C28985882351F481E055
:100B2000898783EF93E041E050E060E070E00E944D
:100B3000241087ED93E00E944F1083EF93E00E9412
:100B40004F102091F20390E0222311F480E004C0C2
:100B500080910E04811181E08F879F5F9830A1F70B
:100B60008823E9F02C8780910E048D878091E7031C
:100B70009091E803A091E903B091EA0381342FE159
:100B8000920720E0A20720E0B20714F083E006C03D
:100B9000895B9B40A040B04014F082E08F879F8526
:100BA0008E85891799F09E879A8B87ED93E040E0B8
:100BB00050E060E070E00E94241083EF93E041E099
:100BC00050E060E070E00E94241001C01A8A209179
:100BD000F2038C85821799F08091E7039091E803E6
:100BE000A091E903B091EA038C349105A105B10508
:100BF0003CF02C87222321F081E0888B01C0188AE9
:100C000020910E048D858217D1F08091030490917C
:100C10000404A0910504B09106048C349105A1054B
:100C2000B1053CF02D8780910E04882311F081E0FE
:100C3000898B00E010E0E1E0EE2EF12C02C0198A71
:100C4000F8CFE88DF98DE00FF11F80810E942030F0
:100C5000782F6C89A701002E02C0440F551F0A94FB
:100C6000E2F7862F90E084239523002E02C095950D
:100C700087950A94E2F7272F30E08217930761F0F7
:100C8000713029F4642B6C8B8B89842B09C0842FE1
:100C9000809586238C8B05C0942F90958B89892312
:100CA0008B8B0F5F1F4F0830110559F688858830F0
:100CB00009F459C0803809F4FAC0882309F0DEC16C
:100CC0008A89833021F4CE010E94DE04D7C18230AC
:100CD00079F483EF93E04AEA5AEA6AEA7AEA0E94F0
:100CE000241087ED93E045E555E565E575E5C4C15C
:100CF000813021F4CE010E94CF04C0C188898823AD
:100D0000B9F088E08887EE89FF8981E0808B87EDE4
:100D100093E040EF50EF60EF70EF0E94241010E07E
:100D2000812F60E00E94FE2F1F5F1830C9F7A6C117
:100D30008989882309F4A2C180E88887EE89FF8920
:100D400081E0808B83EF93E040EF50EF60EF70EF36
:100D50000E94241010E0812F60E00E94FE2F1F5F90
:100D60001830C9F78BC18A898823E1F488898823E0
:100D7000A9F183EF93E040E050E060E070E00E9472
:100D800024108A85992787FD9095029661E270E08C
:100D90000E94043481508A878F3F49F487E060E0E5
:100DA0000E94FE2FCE0161E00E942E0567C18031B6
:100DB00054F0A7C082300CF461C1812F815060E0F3
:100DC0000E94FE2F5BC1182F159580FFD1C087EDC3
:100DD00093E04AE050E06AE070E0D0C0898988235F
:100DE00009F16B8567FD08C0772767FD70958E89CF
:100DF0009F8941E00E9467296A85603134F0772736
:100E000067FD70956051704007C067FDE2C07727AD
:100E100067FD7095605F7F4F8E899F8941E00E94DA
:100E20006729D7C08B89882309F428C120E030E0E6
:100E3000482F50E0122FCA01022E02C095958795C7
:100E40000A94E2F780FD06C01F5F2F5F3F4F2830F6
:100E5000310581F78B858F3F51F0212F30E09927A5
:100E600087FD9095959587952817390751F083EF61
:100E700093E04AE050E06AE070E00E942410812F85
:100E8000D1C08D89813021F4110F1F5F1B87DEC017
:100E9000823009F0F3C083EF93E040E050E060E07F
:100EA00070E00E9424108FEF8B871D8A21C08A89F1
:100EB000882309F077CF8889882309F467C083EFF6
:100EC00093E040EF50EF60EF70EF0E9424108A85AE
:100ED000992787FD9095029661E270E00E940434A4
:100EE00081508A878F3F59F487E060E00E94FE2F8F
:100EF00087ED93E040EF50EF60EF70EFBDC08031C1
:100F000064F183EF93E04AE050E06AEA7AE00E94FD
:100F100024102A85332727FD3095C90140979595E0
:100F20008795182F20FF07C087ED93E040E050EA37
:100F300060E070EA06C087ED93E04FEF5FEF6FEF80
:100F40007FEF0E942410812F61E00E94FE2F8A858E
:100F5000803109F02FCF87E032CF182F159580FF11
:100F600007C087ED93E040E050EA60E070EA06C019
:100F700087ED93E04FEF5FEF6FEF7FEF0E9424105C
:100F8000812F61E00E94FE2F8A8514CF89898823F2
:100F900019F16B8567FD08C0772767FD70958E890D
:100FA0009F8941E00E9483296A85603134F0772768
:100FB00067FD70956051704007C067FD0AC07727D4
:100FC00067FD7095605F7F4F8E899F8941E00E9429
:100FD0008329CE0160E0E8CE8B89882309F44EC0D6
:100FE00020E030E0682F70E0422FCB01022E02C0DB
:100FF000959587950A94E2F780FD06C04F5F2F5FB5
:101000003F4F2830310581F78B858F3F51F0242FDA
:1010100030E0992787FD9095959587952817390792
:1010200079F0842F90E0880F991F8B8787ED93E0EC
:101030004FEF5FEF6FEF7FEF0E94241081E00FC052
:101040008D89813071F4440F4F5F4B8787ED93E0BA
:101050004AE050E06AE070E00E94241082E08D8B4C
:101060000DC0823059F48FEF8B871D8A87ED93E096
:1010700040E050E060E070E00E942410DF91CF91EA
:101080001F910F91FF90EF900895FC01358B248BF9
:10109000758364835783468308950895DF92EF92A2
:1010A000FF920F931F93DF93CF93CDB7DEB7C25656
:1010B000D0400FB6F894DEBF0FBECDBF7C01198AB9
:1010C000188A1A8A1A861B861C861D861E861F860B
:1010D0001A8E198E1B8E1B8A1C8A1D8A1E8A1F8AD5
:1010E000188E80E28D8FDE015396F70120893189B9
:1010F000C901FC0189E001900D928150E1F7D7010F
:101100005096ED91FC915197848990E09C012C7F41
:10111000307024383105F1F0253831052CF42038B1
:10112000310509F0D6C009C02C38310509F4A0C03A
:10113000283A310509F0CDC056C087E08C8F82E88F
:101140008E8F88E68F8F18A282EF89A38FEF8AA3F4
:101150008DEF17C088E08C8F86E88E8F85898F8F02
:1011600018A219A21AA21BA21CA285898D3F59F0B0
:101170008F3F91F587E88E8F18A219A282E08AA38B
:1011800082E38BA329C087E88E8FF7018489958934
:101190000E94C60A692F77278827992768A3D70155
:1011A00054968D919C9155970E94C60ABC01882740
:1011B000992769A3F701848995890E94C60A672F38
:1011C000782F892F99276AA3D70154968D919C91E6
:1011D00055970E94C60A6BA3C701BE01665F7F4F89
:1011E0000E947E2676C08370907081309105E1F177
:1011F000029709F06EC018861F82198619821A821A
:101200001B821C821D821E82DE011196759686E06D
:1012100001900D928150E1F7D7011696ED91FC9166
:10122000179799818081981709F053C09A8181811D
:10123000981709F04EC09B818281981709F049C028
:101240009C818381981709F044C09D8184819817FF
:1012500009F03FC09E8185819817D9F554968D91EC
:101260009C9155970E94D50CE0E0F0E0099531C0C3
:1012700015891770812F90E0B3E0880F991FBA95F8
:10128000E1F702968C8F8EE88E8F8FE094E062E01B
:1012900070E00E94F910D82E8FE094E063E070E0D7
:1012A0000E94F910082F1111FFCFC701BE01665F20
:1012B0007F4F0E947E268FE094E062E070E04D2D2B
:1012C0000E9400118FE094E063E070E0402F0E94E4
:1012D0000011CE59DF4F0FB6F894DEBF0FBECDBF61
:1012E000CF91DF911F910F91FF90EF90DF900895C4
:1012F000FF920F931F93CF93DF93EC01E889F98955
:10130000018D25899689F788108D8489682F70E072
:10131000637070706130710561F0623071051CF4AA
:10132000672B29F006C06230710519F404C00D3F27
:1013300011F080E02FC030E040E050E0522F442711
:1013400033272227892F90E0A0E0B0E0DC01992725
:101350008827282B392B4A2B5B2B812F90E0A0E08C
:10136000B0E0282B392B4A2B5B2B8F2D90E0A0E08F
:10137000B0E0BA2FA92F982F8827282B392B4A2B7A
:101380005B2B79968C899D89B901402F9F010E9422
:10139000140B81E0DF91CF911F910F91FF90089581
:1013A000EF92FF921F93DF93CF93CDB7DEB7C9556E
:1013B000D0400FB6F894DEBF0FBECDBF7C011886BB
:1013C0001F82198619821A821B821C821D821E822C
:1013D000198A188A1A8A1A861B861C861D861E86FA
:1013E0001F86DE011A96FC01808991899C01F90112
:1013F00089E001900D928150E1F7D7015096ED916F
:10140000FC915197DE015496739686E001900D92FF
:101410008150E1F78D898F7080658D8BD701509653
:10142000ED91FC915197118D858990E0A0E0B0E09D
:10143000582F442733272227868990E0A0E0B0E088
:10144000DC0199278827282B392B4A2B5B2B808D91
:1014500090E0A0E0B0E0282B392B4A2B5B2B87894A
:1014600090E0A0E0B0E0BA2FA92F982F8827282B72
:10147000392B4A2B5B2B848990E0837090708130EC
:10148000910581F0823091051CF4892B39F00AC056
:101490008230910571F1039729F406C01D3F49F18F
:1014A0001F3F11F080E039C0B901C901810F911DC2
:1014B0008453924010F013E3121BDE015A9680E031
:1014C00090E0212F30E00FC0E2E062337E0710F0A1
:1014D0001C9205C0FB01EC56FF4FE491EC93019682
:1014E00011966F5F7F4F8217930770F31A5F1B8B04
:1014F0000EC0D70154968D919C915597B901412FFB
:101500009E01265E3F4F0E94D30A8A5F8B8BC701E4
:10151000BE016F5F7F4F0E947E26C75ADF4F0FB616
:10152000F894DEBF0FBECDBFCF91DF911F91FF902A
:10153000EF900895DC011696ED91FC911797309786
:1015400019F18085882301F15096ED91FC91519716
:1015500083898032C9F4848990E0807C90708034E3
:10156000910531F08038910559F0892B29F00CC094
:10157000CD010E94D0090895CD010E9478090895F7
:10158000CD010E944E08089580E00895FC018285F7
:10159000938523E0880F991F2A95E1F70197BC01F5
:1015A00080E090E00895CF93DF93EC01F901CB0147
:1015B000B3E096958795BA95E1F7582F2A853B8534
:1015C000A3E0220F331FAA95E1F7CB01840F911DF1
:1015D0002817390710F4422F461B852F880F880FD4
:1015E000880F681BDF01752F50E018C0683011F4B8
:1015F0007F5F60E0272F30E0C901E3E0880F991F8B
:10160000EA95E1F7820F931FE885F985E80FF91F46
:10161000E60FF11D80818D935F5F6F5F541730F38C
:10162000842FDF91CF910895CF93DF93DC01F901EF
:1016300081E054968C935497CB0123E0969587953F
:101640002A95E1F7582F1A962D913C911B9783E02C
:10165000220F331F8A95E1F7CB01840F911D2817C4
:10166000390710F4422F461B852F880F880F880FEB
:10167000681BEF01752F50E01AC0683011F47F5FCE
:1016800060E0272F30E0C901E3E0880F991FEA9559
:10169000E1F7820F931F1896ED91FC911997E80FCF
:1016A000F91FE60FF11D899180835F5F6F5F54170B
:1016B00020F3DF91CF910895FC018089882341F4C4
:1016C000CB01409796958795609561700E94FE2F9B
:1016D00081E008958F929F92BF92CF92DF92EF9216
:1016E000FF920F931F93CF93DF93EC01EE81FF8165
:1016F000309709F465C08085882309F461C0CC2E39
:10170000BD2EDD2451E0852E912C88898823E1F5BA
:101710008A898823C9F57E0100E010E0F7018589F8
:101720000E942030382F2B89A401002E02C0440FC4
:10173000551F0A94E2F7822F90E084239523002E10
:1017400002C0959587950A94E2F7381719F48989AC
:10175000882389F024272B8BB801660F771F80E040
:1017600090E0313011F481E090E0682B792B8C2DE2
:101770009B2D0E9482270F5F1F4F0894E11CF11CD4
:101780000830110559F6198AD394F8E0DF1609F0EC
:10179000BCCF8C2D9B2D0E94BB262E853F858A8534
:1017A0009B852817390709F41A8A8C89882341F008
:1017B000E881F9810084F185E02DCE0109951C8A2C
:1017C000DF91CF911F910F91FF90EF90DF90CF901D
:1017D000BF909F908F9008958F929F92AF92BF92EB
:1017E000DF92EF92FF920F931F93CF93DF934C0101
:1017F000DD2416C0F401008511850A0D1B1D8FE044
:1018000094E0B7010E94F9100C0F1D1FF8018083AE
:1018100021960894E11CF11CC830D10559F7D394E6
:101820002D2D30E0F401828593852817390788F43F
:10183000C90173E0880F991F7A95E1F75C01A20E48
:10184000B31E64E0E62EF12CE80EF91EC0E0D0E0F5
:10185000D1CF81E0DF91CF911F910F91FF90EF9059
:10186000DF90BF90AF909F908F9008951F93CF937C
:10187000DF9310E0C4E0D0E08FE094E0BE0145E0EB
:101880000E94001121968FE094E0BE0142E00E9488
:10189000001121968FE094E0BE0141E00E9400110A
:1018A00021968FE094E0BE0142E00E940011219653
:1018B0008FE094E0BE0142E00E94001121968FE08B
:1018C00094E0BE0140E00E94001121968FE094E078
:1018D000BE0140E00E94001121968FE094E0BE011D
:1018E000412F0E9400111F5F2196103129F610E050
:1018F000C4E8D0E08FE094E0BE0145E00E94001112
:1019000021968FE094E0BE0142E00E9400112196F2
:101910008FE094E0BE0141E00E94001121968FE02B
:1019200094E0BE0142E00E94001121968FE094E015
:10193000BE0142E00E94001121968FE094E0BE01BA
:1019400040E00E94001121968FE094E0BE0140E04B
:101950000E94001121968FE094E0BE01412F0E9469
:1019600000111F5F2196103129F68FE094E062E0AC
:1019700070E040E00E9400118FE094E063E070E0CE
:1019800047E10E9400118FE094E060E070E049E4DC
:101990000E9400118FE094E061E070E04FE60E9449
:1019A0000011DF91CF911F9108959F92AF92BF9246
:1019B000CF92DF92EF92FF920F931F93CF93DF931B
:1019C0005C018FE094E060E070E00E94F9108934DF
:1019D00009F0D2C08FE094E061E070E00E94F9105D
:1019E0008F3609F0C9C08FE094E062E070E00E9499
:1019F000F910982E8FE094E063E070E00E94F910F7
:101A0000C82E8FE094E060E070E048E50E9400118D
:101A100080EFC81639F4492D4F5F8FE094E062E003
:101A200070E005C08FE094E062E070E0492D0E9414
:101A300000114C2D405F8FE094E063E070E00E9465
:101A40000011DD2425C0D5011696ED91FC91179764
:101A5000E00FF11F8FE094E0B70140810E94001178
:101A60000F5F1F4F0894E11CF11C0630110559F758
:101A70002A968FE094E0BE01492D0E940011219624
:101A80004D2D4C0D8FE094E0BE010E940011D394C7
:101A9000F50182859385969587956D2D70E0681781
:101AA000790770F4EB0113E0CC0FDD1F1A95E1F715
:101AB000B4E0EB2EF12CEC0EFD1E00E010E0C3CFE5
:101AC000D82E2BC0D5011696ED91FC911797E00FFB
:101AD000F11F8FE094E0B70140810E9400110F5F79
:101AE0001F4F0894E11CF11C0630110559F72A9686
:101AF0008FE094E0BE01492D0E9400112196F5016E
:101B000082859385969587954C2D481B4D0D8FE0CA
:101B100094E0BE010E940011D3946D2D70E0D501B8
:101B20001A968D919C911B976817790770F4EB01B9
:101B3000F3E0CC0FDD1FFA95E1F7E4E0EE2EF12C97
:101B4000EC0EFD1E00E010E0BDCF8FE094E060E001
:101B500070E049E40E9400118FE094E061E070E0E1
:101B60000E94F9108F3659F08FE094E061E070E048
:101B70004FE60E94001103C0C5010E94360CDF91A0
:101B8000CF911F910F91FF90EF90DF90CF90BF907A
:101B9000AF909F900895AF92BF92CF92DF92FF9245
:101BA0000F931F93CF93DF935C01FF2416C0D501E1
:101BB0001896ED91FC911997EC0DFD1DEC0FFD1F92
:101BC0008FE094E0B80140810E94001121960F5FE0
:101BD0001F4FC830D10559F7F3942F2D30E0F50190
:101BE000828593852817390778F4C90143E0880F67
:101BF000991F4A95E1F76C01C20ED31E8C010C5F50
:101C00001F4FC0E0D0E0D3CF81E0DF91CF911F9193
:101C10000F91FF90DF90CF90BF90AF9008950F93FA
:101C20001F93CF93DF93EC018C0150E00E945B2760
:101C30008FE094E060E070E00E94F910893441F494
:101C40008FE094E061E070E00E94F9108F3619F0A7
:101C5000CE010E94D50CE881F9810284F385E02D44
:101C6000CE010995C0E0D0E0C801BE0141E020E00E
:101C70000E9431292196C031D105B1F7C0E1D0E0F1
:101C8000C801BE0140E021E00E9431292196C03206
:101C9000D105B1F7DF91CF911F910F910895CF93A7
:101CA000DF93EC01EE81FF81309709F446C0808517
:101CB000882309F442C09B8D97FD3FC08C8D8F5FB8
:101CC000891B8AA3893010F088E08AA321E016C01E
:101CD000822F90E0EB8DFF27E7FDF095E80FF91FCD
:101CE000EB53FD4FE491DE01A80FB91F9396EC93DF
:101CF0009397EA3011F493961C922F5F8AA12817CC
:101D000038F3AC81BD81ED91FC911197BE01635E0A
:101D10007F4F0084F185E02DCD0109952AA1215046
:101D20008B8D280F2B8F332727FD30958C8D90E0DE
:101D30002817390714F08FEF8B8FDF91CF9108951B
:101D4000CF92DF92EF92FF920F931F938C017B0152
:101D50006A018FEFF801838F86EC92E00E941203F4
:101D60008F5FF801848FF582E482D782C6821F914B
:101D70000F91FF90EF90DF90CF900895CF93DF9376
:101D8000EC010E941516882329F0CE010E94EF165F
:101D90000E9729F020E0822FDF91CF91089520E067
:101DA0008E818E32C1F721E0F6CFCF93DF93EC0125
:101DB0000E941516882329F0CE010E94EF160E9777
:101DC00029F020E0822FDF91CF91089520E08E81CD
:101DD0008235C1F721E0F6CFCF92DF92EF92FF92EA
:101DE0000F931F93DF93CF93CDB7DEB7E3970FB673
:101DF000F894DEBF0FBECDBF6C018B01DC011696DF
:101E0000ED91FC911797309709F40EC180858823D6
:101E100009F40AC1CB010E94D50E882309F46DC0D4
:101E2000198A188A1A8A1A861B861C861D861E869F
:101E30001F86C801BE01665F7F4F0E94CA17D60188
:101E40001696ED91FC91179728893989211531054E
:101E500041F086819781009721F028173907F9F022
:101E6000E3C09A858081981709F0DEC09B85818147
:101E7000981709F0D9C09C858281981709F0D4C0C1
:101E80009D858381981709F0CFC09E85848198171E
:101E900009F0CAC09F858581981709F0C5C0F60171
:101EA000138E18861F82198619821A821B821C8241
:101EB0001D821E82C8017E010894E11CF11CB7013D
:101EC0000E94C9158601035E1F4FD60116966D91BB
:101ED0007C911797C8010E947815C801B7010E942C
:101EE0003518C8010E940A16C8016EE070E00E9411
:101EF000041783E5F60183A395C0C8010E94BE0EB6
:101F0000882309F491C018861F82198619821A82C3
:101F10001B821C821D821E82C801BE016F5F7F4F23
:101F20000E94CA17D6011696ED91FC9117972F8142
:101F300038852115310541F086819781009721F080
:101F400028173907F9F070C099818081981709F036
:101F50006BC09A818181981709F066C09B8182814C
:101F6000981709F061C09C818381981709F05CC0C3
:101F70009D818481981709F057C09E8185819817AB
:101F800009F052C018A61FA219A619A21AA21BA2D4
:101F90001CA21DA21EA219AA18AA1AAA1AA61BA63A
:101FA0001CA61DA61EA61FA6198A188A1A8A1A869A
:101FB0001B861C861D861E861F868AE0E82EF12C55
:101FC000EC0EFD1EC801B7010E94C9158E010D5E01
:101FD0001F4FF60166817781C8010E947815C801FC
:101FE000B7010E943518C8010E940A16C8016EE0A8
:101FF00070E00E9404178FE2898F87E0888F85ED5B
:102000008A8F1B8E1C8E1D8E1E8E1F8EF601A48144
:10201000B581ED91FC9111970084F185E02DCD0102
:10202000B801099581E001C080E0E3960FB6F8940D
:10203000DEBF0FBECDBFCF91DF911F910F91FF90FB
:10204000EF90DF90CF900895FC0144875587668715
:10205000778708950F931F938C01FC016287138685
:10206000808D61E00E94D22FF801808D62850E94F0
:10207000FE2FF8011086148A158A168A178A108A8C
:10208000118A128A138A138E1F910F910895FC01F1
:1020900042871386608F642F0E942A100895AF92A2
:1020A000BF92CF92DF92EF92FF920F931F93CF9345
:1020B000DF93EC010E941D2FD62EC72EB82EA92E1D
:1020C000E62EF72E9701207E8E819F8128173907F3
:1020D00009F449C03F832E83888D60E00E94D22F8F
:1020E000888D61E00E94FE2F0A851B85888D0E94E5
:1020F000203019860817190711F481E08987888D27
:1021000061E00E94D22F888D6A8D0E94FE2F9985F2
:102110008885981711F0988726C08B8D8917A9F0AC
:102120009B8F88899989AA89BB898096A11DB11D39
:102130008C8B9D8BAE8BBF8BD882C982BA82AB82CF
:10214000188A198A1A8A1B8A0EC00E941D2F28819C
:1021500039814A815B81621B730B840B950B688B01
:10216000798B8A8B9B8B9701207C30708C819D8131
:102170002817390799F13D832C838C852A853B8567
:1021800080FF0FC080E0232B09F081E08A8F8C85CF
:102190009D85AE85BF85B595A79597958795B068C0
:1021A0000DC080E0232B09F481E08A8F8C859D850A
:1021B000AE85BF85B695A795979587958C879D87A2
:1021C000AE87BF87898D80FD1A8E898D90E09595A9
:1021D0008795898F888D6A8D0E94FE2FDF91CF9120
:1021E0001F910F91FF90EF90DF90CF90BF90AF9035
:1021F0000895F999FECF72BD61BDF89A80B5089532
:10220000F999FECF72BD61BD40BD0FB6F894FA9A40
:10221000F99A0FBE0895EF92FF920F931F93CF93F9
:10222000DF93DC01FB0117968D919C91189768173D
:10223000790709F470C0108619968C91199781302E
:1022400021F4ED01279639F405C0882319F4ED0136
:10225000279609F4FFCFF983E8838B819C8100974F
:1022600021F09783868387E055C0E080FF2400E05B
:1022700010E08701FF24EE24818190E0A0E0B0E02F
:10228000BA2FA92F982F8827E82AF92A0A2B1B2B67
:10229000828190E0A0E0B0E0E82AF92A0A2B1B2B0B
:1022A000238130E040E050E0A901332722278481D8
:1022B00090E0A0E0B0E0BA2FA92F982F8827282B14
:1022C000392B4A2B5B2B858190E0A0E0B0E0282BD6
:1022D000392B4A2B5B2BC9018E259F257CE0169557
:1022E0000795F794E7947A95D1F78E259F256CE0B2
:1022F00056954795379527956A95D1F78227932765
:102300009F709C838B83892B21F481E090E09C83D8
:102310008B8382E08A83DF91CF911F910F91FF9091
:10232000EF9008956F927F928F929F92AF92BF929B
:10233000CF92DF92EF92FF920F931F93CF93DF9391
:10234000EB01E881F981309709F010866B817C817F
:10235000ED84FE840F851889A8019701FFE056954A
:10236000479537952795FA95D1F7317040705070A1
:10237000A984BA84CB84DC84D601C501E9E0880F46
:10238000991FAA1FBB1FEA95D1F7282B392B4A2B7F
:102390005B2BD801C701F9E0880F991FAA1FBB1F4B
:1023A000FA95D1F7B070E9EA6E2EEBE47E2EEAE7FB
:1023B0008E2E912CE60CF71C081D191D8E0D9F1DED
:1023C000A01FB11F03EAE02E0CE0F02E0BE1002F5E
:1023D000112DAE0CBF1CC01ED11E2A0D3B1D4C1D65
:1023E0005D1D5070EB2EFF24002711272E293F2959
:1023F000402B512B29873A874B875C87B0708D879C
:102400009E87AF87B88B79018A01FCE01695079506
:10241000F794E794FA95D1F7AC014E255F25422752
:102420005327ECE0B695A79597958795EA95D1F750
:10243000482759275F705C834B834115510509F488
:1024400087CF4617570709F483CF8FE08A83DF9140
:10245000CF911F910F91FF90EF90DF90CF90BF90A1
:10246000AF909F908F907F906F900895CF93DF9360
:10247000EC01DB01EF81F88516962D913C911797C1
:102480002115310541F086819781009721F02817A9
:10249000390749F521C09C918081981721F5119643
:1024A0009C91119781819817F1F412969C91129743
:1024B00082819817C1F413969C9113978381981782
:1024C00091F414969C9114978481981761F4159651
:1024D0009C918581981739F48FE08987EF81F88581
:1024E000108681E001C080E0DF91CF910895CF9305
:1024F000DF93DC01FB0186819781892B19F58081AF
:10250000882301F581818823E9F482818823D1F42D
:1025100083818823B9F484818823A1F48581882369
:1025200089F41A968D919C911B97892B09F43FC0D1
:102530001796CD91DC9118972097C9F1888588234B
:10254000B1F127C01A968D919C911B97892B79F137
:102550001796CD91DC911897209749F188858823AB
:1025600031F190818881981711F5918189819817AF
:10257000F1F492818A819817D1F493818B81981715
:10258000B1F494818C81981791F495818D8198177D
:1025900071F41196ED91FC911297A081B1811A9678
:1025A0002D913C911B97CF01BE01F9010995DF9157
:1025B000CF910895CF93DF93EC01DB018A859B8552
:1025C000892B41F1EF81F8859C918081981711F555
:1025D00011969C91119781819817E1F412969C9124
:1025E000129782819817B1F413969C911397838167
:1025F000981781F414969C9114978481981751F43C
:1026000015969C918581981729F489819A81BF013B
:102610000E942E1DDF91CF9108950F931F938C017F
:10262000FC01728361830E941D2FF8016383748310
:10263000858396831F910F910895FF920F931F93A7
:10264000CF93DF938C01EC01888190E0EC0134E0C2
:10265000CC0FDD1F3A95E1F7C80FD91FC00FD11F6E
:10266000F984E6E0FE1609F4EFC0EF15A0F0F3E000
:10267000FF1609F493C0FF1528F022E0F21609F0C6
:10268000CBC14CC084E0F81609F49EC0E5E0FE160C
:1026900009F0C2C1B1C0FFE0FF16A1F0FF1548F07C
:1026A00027E0F21609F467C188E0F81609F0B4C112
:1026B0007BC1E4E1FE1609F410C1F9E1FF1609F04F
:1026C000ABC138C18F819885892B11F082E001C0A0
:1026D00081E08987E801888190E0FC0124E0EE0F29
:1026E000FF1F2A95E1F7E80FF91FE00FF11F67813F
:1026F000708589819A810E94521D882309F08CC1BE
:10270000888190E0FC01B4E0EE0FFF1FBA95E1F77D
:10271000E80FF91FE00FF11F8FE03EC0EF81F88551
:102720002A853B85868197818217930711F037832D
:102730002683F801808190E0FC01A4E0EE0FFF1FEA
:10274000AA95E1F7E80FF91FE00FF11F83E08187F9
:10275000E801888190E0FC0174E0EE0FFF1F7A959C
:10276000E1F7E80FF91FE00FF11F6781708589819C
:102770009A8141E00E94D422882309F04DC18881CA
:1027800090E0FC0164E0EE0FFF1F6A95E1F7E80FAF
:10279000F91FE00FF11F82E081873EC184E0898745
:1027A000F801808190E0FC0154E0EE0FFF1F5A9584
:1027B000E1F7E80FF91FE00FF11F67817085E8016D
:1027C00089819A8142E015C085E08987F80180817E
:1027D00090E0FC0144E0EE0FFF1F4A95E1F7E80F9F
:1027E000F91FE00FF11F67817085E80189819A81E7
:1027F00043E00E94D422D4C00E941D2F6C877D87A5
:102800008E879F87F801808190E0FC0134E0EE0F15
:10281000FF1F3A95E1F7E80FF91FE00FF11F86E07F
:102820008187E801888190E0FC0124E0EE0FFF1F22
:102830002A95E1F7E80FF91FE00FF11F6781708516
:1028400089819A8144E0D5CF0E941D2FF801208113
:1028500030E0F901B4E0EE0FFF1FBA95E1F7E20FA7
:10286000F31FE00FF11F2485358546855785621BD0
:10287000730B840B950B645F71408040904008F4AB
:10288000CBC087819085892B11F087E001C081E062
:102890008187E801888190E0FC01A4E0EE0FFF1F32
:1028A000AA95E1F7E80FF91FE00FF11F6781708526
:1028B00089819A810E94B022882309F0ADC0888165
:1028C00090E0FC0174E0EE0FFF1F7A95E1F7E80F4E
:1028D000F91FE00FF11F86E05FCF8F819885892B6C
:1028E00011F08EE101C081E08987F801808190E0DC
:1028F000FC0164E0EE0FFF1F6A95E1F7E80FF91F96
:10290000E00FF11F67817085E80189819A810E943B
:10291000B022882309F080C0888190E0FC0154E057
:10292000EE0FFF1F5A95E1F7E80FF91FE00FF11FB7
:1029300084E132CF8EE18987F801A181B2812D91A6
:102940003C911197808190E0FC0144E0EE0FFF1F65
:102950004A95E1F7E80FF91FE00FF11F67817085D5
:10296000E901EA85FB85CD010995882309F054C06A
:10297000F801808133C088E08987E801888190E090
:10298000FC0134E0EE0FFF1F3A95E1F7E80FF91F65
:10299000E00FF11F6781708589819A810E942E1D49
:1029A0008823D1F588811AC08EE18987F80180815A
:1029B00090E0FC0124E0EE0FFF1F2A95E1F7E80FFD
:1029C000F91FE00FF11F67817085E80189819A8105
:1029D0000E9496229881882371F4892F90E0FC014F
:1029E000B4E0EE0FFF1FBA95E1F7E80FF91FE00F13
:1029F000F11FF18611C0892F90E0FC01A4E0EE0FD9
:102A0000FF1FAA95E1F7E80FF91FE00FF11F0780FC
:102A1000F085E02D81E08087F8011082DF91CF9171
:102A20001F910F91FF9008950F931F93CF93DF9302
:102A3000EC018B01CB010E948C152A853B85821706
:102A4000930709F048C08985873038F48330C0F493
:102A5000813081F1823058F407C0883059F18830D4
:102A600098F08E31C1F526C01B861A8634C0F80155
:102A700080A1882329F0C8010E94A416882359F553
:102A8000C8010E945B1620C0F80180A1882329F4A8
:102A9000C8010E945B168823C9F0F80180A1882331
:102AA000D1F0C8010E945B168823A9F4C8010E94D6
:102AB0008B160AC0C8010E945B16882319F084E1B6
:102AC000898709C0F80180A1882329F4CE012796BF
:102AD000BE010E949211DF91CF911F910F91089535
:102AE0009C012A5F3F4FC9010895FC01858108952B
:102AF000AC01FB0186819781FA0110A2248122603A
:102B00002E7F2483A0E0B0E0906FAF6FBF61808321
:102B10009183A283B3830895FC01208131813F70AA
:102B2000C90108950F931F93FC01DB0116960D91C7
:102B30001C911797980140E050E03F704070507032
:102B400080819181A281B3818070907F282B392B65
:102B50004A2B5B2B2083318342835383158B048B59
:102B6000DB018C91868711968C911197878712963D
:102B70008C911297808B13968C911397818B14965E
:102B80008C911497828B15968C91838B1F910F914A
:102B90000895FC01DB0184899589892B91F4868550
:102BA000882379F48785882361F48089882349F410
:102BB0008189882331F48289882319F483898823C1
:102BC000F9F0808191819F70958B848B17969C93EF
:102BD0008E93169786858C93878511968C93119783
:102BE000808912968C931297818913968C931397F0
:102BF000828914968C931497838915968C930895E3
:102C0000158A148A168A16861786108A118A128ADD
:102C1000138AD7CFFC0180819181A281B381B860F2
:102C200080839183A283B3830895FC018081918185
:102C3000A281B3813BE1B695A795979587953A9583
:102C4000D1F7817008950F931F93CF93DF938C0179
:102C5000DA01EC0118A2EC81E260EE7FEC83709562
:102C600061957F4F67707070762F66277295707FC1
:102C7000BF706A2B7B2B80E090E0ECE0660F771F43
:102C8000881F991FEA95D1F740E050E0306F4F6FF1
:102C90005F613F704070507F622B732B842B952BAC
:102CA000F80160837183828393831582DF91CF91D2
:102CB0001F910F910895FC0180819181A281B381C0
:102CC000B3FF02C020E011C020E08070907FBF7091
:102CD0003CE0B695A795979587953A95D1F7807082
:102CE00090778050904408F021E0822F0895FC01F5
:102CF00010A2248122602E7F248380E090E07F70E8
:102D00008070907080679061608371838283938309
:102D100086E085830895FC012081318142815381C1
:102D200053FF02C080E0089580E02070307F5F7024
:102D30006CE056954795379527956A95D1F72050C1
:102D4000374009F481E00895FC01208131814281FE
:102D5000538153FF02C080E0089580E02070307FEF
:102D60005F707CE056954795379527957A95D1F712
:102D70002350374009F481E00895FC01208131811E
:102D80004281538153FF02C080E0089580E02070AB
:102D9000307F5F70ECE05695479537952795EA951B
:102DA000D1F72150374009F481E00895FC012081DA
:102DB00031814281538153FF02C080E0089580E059
:102DC0002070307F5F709CE056954795379527952A
:102DD0009A95D1F72250374009F481E00895FC011B
:102DE00020813181428153812070307F5F706CE09F
:102DF00056954795379527956A95D1F7232F332711
:102E000022952F70C9010895EF92FF920F931F939F
:102E1000FC01E080F18002811381362F3295307FF2
:102E200020E0D801C7018070907FBF704CE0B6955C
:102E3000A795979587954A95D1F79F70282B392BA1
:102E400040E050E07CE0220F331F441F551F7A956D
:102E5000D1F78FEF9FE0A0E0B0EFE822F9220A233C
:102E60001B232E293F29402B512B20833183428362
:102E700053831F910F91FF90EF9008950F931F932D
:102E8000FC0100811181228133815F70962F929520
:102E9000907F80E0842B952BA0E0B0E04CE0880F81
:102EA000991FAA1FBB1F4A95D1F71F702070307F52
:102EB000802B912BA22BB32B80839183A283B3838E
:102EC0001F910F9108950F931F938C01FA01868132
:102ED0009781F80110A2248122602E7F2483A0E034
:102EE000B0E0906FAF6FBF6180839183A283B383A3
:102EF000FB0146815781C8016EE070E00E943E17D9
:102F000081E0F80185838CE086831F910F910895FD
:102F1000FC0180819181A281B381B3FF18C08070D0
:102F2000907FBF70ECE0B695A79597958795EA9549
:102F3000D1F7FC01892F992782958F70089739F472
:102F400080E0FF70EF5DFA4019F481E0089580E0C1
:102F50000895FC0180819181A281B381B3FF18C0E3
:102F60008070907FBF702CE0B695A7959795879558
:102F70002A95D1F7FC01892F992782958F700897A0
:102F800039F480E0FF70EF5CFA4019F481E00895B5
:102F900080E00895CF93DF93FC01EB018081918164
:102FA000A281B3818070907FBF707CE0B695A795B9
:102FB000979587957A95D1F7892F992782958F7064
:102FC0008F30910581F08A30910569F08B30910541
:102FD00051F08C30910539F08D30910521F00E972C
:102FE00011F080E035C0858D968D892B91F487890D
:102FF000882379F4808D882361F4818D882349F4B6
:10300000828D882331F4838D882319F4848D88235D
:1030100011F180819181A281B3818070907FB07025
:103020005CE0B695A795979587955A95D1F7968FB9
:10303000858F9F838E8387898883808D8983818D07
:103040008A83828D8B83838D8C83848D8D8381E0B5
:10305000DF91CF910895168E158E178E178A108ED8
:10306000118E128E138E148ED4CF0F931F93FC01EA
:1030700020813181428153813F704070DB0116967F
:103080000D911C911797C801A0E0B0E0072E7CE0DD
:10309000880F991FAA1FBB1F7A95D1F7702D8070DA
:1030A000907FB070822B932BA42BB52B80839183C0
:1030B000A283B383168F058FDB018C91878B1196CA
:1030C0008C911197808F12968C911297818F139605
:1030D0008C911397828F14968C911497838F1596E9
:1030E0008C91848F1F910F910895FC0180819181B3
:1030F000A281B381B3FF18C08070907FBF703CE0A5
:10310000B695A795979587953A95D1F7FC01892FA4
:10311000992782958F70089739F480E0FF70E75AFD
:10312000F84019F481E0089580E00895FC01808161
:103130009181A281B3818070907FBF705CE0B69571
:10314000A795979587955A95D1F7892F99278295B5
:103150008F700E9749F48581882331F020E08681B5
:103160008A3019F421E001C020E0822F0895FC018B
:1031700080819181A281B381B3FF18C08070907F5C
:10318000BF707CE0B695A795979587957A95D1F70E
:10319000FC01892F992782958F70089739F480E078
:1031A000FF70E75BF84019F481E0089580E008952E
:1031B000FC0180819181A281B381B3FF18C080702E
:1031C000907FBF702CE0B695A795979587952A9527
:1031D000D1F7FC01892F992782958F70089739F4D0
:1031E00080E0FF70EF54FA4019F481E0089580E028
:1031F0000895FC0180819181A281B381B3FF18C041
:103200008070907FBF704CE0B695A7959795879595
:103210004A95D1F7FC01892F992782958F700897DD
:1032200039F480E0FF70EF58FA4019F481E0089516
:1032300080E00895FC0180819181A281B381B3FF78
:1032400018C08070907FBF706CE0B695A795979579
:1032500087956A95D1F7FC01892F992782958F7000
:10326000089739F480E0FF70E75BFA4019F481E0D9
:10327000089580E00895FC0180819181A281B3814D
:103280008070907FBF702CE0B695A7959795879535
:103290002A95D1F7892F992782958F700E9749F437
:1032A0008581882331F020E086818B3219F421E07A
:1032B00001C020E0822F0895FC0180819181A281CC
:1032C000B381B3FD02C080E008958070907FBF702D
:1032D0004CE0B695A795979587954A95D1F7FC014F
:1032E000EF2FFF27E295EF70EA30F10559F0EB3050
:1032F000F10541F0EC30F10529F080E03D9719F43B
:1033000081E0089581E00895FC0180819181A2818E
:10331000B381B3FD02C080E008958070907FBF70DC
:103320006CE0B695A795979587956A95D1F7FC01BE
:10333000EF2FFF27E295EF70EA30F10511F481E0FD
:10334000089580E03D9709F481E00895FC018081B3
:103350009181A281B381B3FD02C080E008958070A5
:10336000907FBF70ECE0B695A79597958795EA9505
:10337000D1F7FC01EF2FFF27E295EF70EA30F1055E
:1033800011F481E0089580E03B9709F481E008950D
:10339000FC0180819181A281B381B3FF10C0807054
:1033A000907FBF702CE0B695A795979587952A9545
:1033B000D1F7892F992782958F700E9719F020E009
:1033C000822F089520E086818C34D1F721E0F8CF58
:1033D000FC0180819181A281B381B3FF10C0807014
:1033E000907FBF704CE0B695A795979587954A95C5
:1033F000D1F7892F992782958F700E9719F020E0C9
:10340000822F089520E086818D34D1F721E0F8CF16
:10341000FC018581833018F420E030E006C09781FC
:1034200080E0208530E0282B392BC9010895DC018C
:103430001696FB0188E001900D928150E1F7089506
:10344000EF92FF920F931F938C017B0168E070E075
:103450004BEA52E00E943E1788E0F8018583C801DC
:10346000B7010E94171A1F910F91FF90EF900895D6
:10347000EF92FF920F931F938C017B0168E070E045
:103480004BE652E00E943E1788E0F8018583C801B0
:10349000B7010E94171A1F910F91FF90EF900895A6
:1034A000EF92FF920F931F938C017B0168E070E015
:1034B0004FEC5AE00E943E1788E0F8018583C8016E
:1034C000B7010E94171A1F910F91FF90EF90089576
:1034D000EF92FF920F931F938C017B0168E070E0E5
:1034E0004FED5AE00E943E1788E0F8018583C8013D
:1034F000B7010E94171A1F910F91FF90EF90089546
:10350000EF92FF920F931F938C01F62EE72E68E047
:1035100070E047EB58E00E943E1786E0F801858393
:10352000D80116962F2D3E2DC901FC0186E0019091
:103530000D928150E1F71F910F91FF90EF90089548
:10354000EF92FF920F931F938C01F62EE72E68E007
:1035500070E047EA58E00E943E1786E0F801858354
:10356000D80116962F2D3E2DC901FC0186E0019051
:103570000D928150E1F71F910F91FF90EF90089508
:10358000CF93DF93EC0188819981AA81BB81807000
:10359000907FBF70FCE0B695A79597958795FA95B3
:1035A000D1F7892F992782958F700E9779F48D81A5
:1035B000882361F08E818A3011F421E008C020E078
:1035C0008B3209F021E081E0282701C020E0422F62
:1035D00050E09A012B5F3F4F8D8190E0281739070B
:1035E00054F4FA013696DB01EC0FFD1F86E00190E2
:1035F0000D928150E1F7DF91CF910895DB01FC013D
:10360000369688E001900D928150E1F70895EF928F
:10361000FF920F931F938C017B01FB0186819781A1
:10362000F80110A2248122602E7F2483A0E0B0E064
:10363000906FAF6FBF6180839183A283B383C80112
:1036400068E070E047E858E00E943E1786E0F80125
:103650008583D8011696F70101900D928150E1F70C
:103660001F910F91FF90EF900895FC01DB011696DA
:103670008D919C91179710A2248122602E7F248324
:10368000A0E0B0E09F70A070B0709061A067B061E2
:1036900080839183A283B38386E085833696DB01A2
:1036A0000D9001928150E1F70895FC01DB0116961F
:1036B0008D919C91179710A2248122602E7F2483E4
:1036C000A0E0B0E09F70A070B0709063A067B061A0
:1036D00080839183A283B38386E085833696DB0162
:1036E0000D9001928150E1F7089580E0089580E007
:1036F0000895DF93CF93CDB7DEB729970FB6F8942F
:10370000DEBF0FBECDBFDC01198681E089838A83CD
:103710001B821C821D821E828EEF8F831886ED9184
:10372000FC9111970288F389E02DCD01BE016F5FF6
:103730007F4F099529960FB6F894DEBF0FBECDBF17
:10374000CF91DF9108950F931F93CF93DF93EC01F7
:103750000E94DB2C8823A9F08E010C5F1F4FC8014B
:103760000E94D02D8823D9F3DE019596FE01349670
:1037700081E201900D928150E1F7CB5BDF4F81E058
:103780008883DF91CF911F910F9108950F931F931D
:10379000CF93DF93EC01162F072F0E94DB2C882399
:1037A00089F0DE011496812F902F9C01F90181E2AE
:1037B00001900D928150E1F7CE010E94A31B882356
:1037C000D9F381E0DF91CF911F910F9108950F936D
:1037D0001F93CF93DF93DC018B017C9160E040E08D
:1037E00050E02BC0EA0129961196ED91FC911297B9
:1037F000E40FF51F26813781F8018681978128170C
:103800003907C9F41396ED91FC911497E60FF11D59
:1038100080818F3F11F08F5F80831196ED91FC9135
:103820001297D801E40FF51F86E001900D928150A8
:10383000E1F781E005C06F5FAE01671798F280E0A5
:10384000DF91CF911F910F910895EF92FF920F9307
:103850001F93CF93DF93EC01DB0116960D911C9122
:1038600017970115110509F460C0E8805FEFFF2488
:1038700040E020E030E03DC0642F70E0FC01E20F4A
:10388000F31F86819781009721F08017910719F522
:103890004CC090818C919817F1F4918111968C9184
:1038A00011979817C1F4928112968C9112979817DC
:1038B00091F4938113968C911397981761F49481E6
:1038C00014968C911497981731F4958115968C91D4
:1038D0001597981751F1EB81FC81E60FF71FE081F6
:1038E000E51710F0E52F01C0F42E4F5F275F3F4F23
:1038F0005E2F89819A814E1508F4BECF2F2D30E0BE
:10390000F90143E0EE0FFF1F4A95E1F7E20FF31FC5
:10391000E80FF91F89E00D9001928150E1F7EB81EA
:10392000FC81E20FF31F81E08083DF91CF911F9133
:103930000F91FF90EF900895EF92FF920F931F93D6
:103940007C018B010E94552BF80166817781C701AC
:103950008A5B9F4F0E9436121F910F91FF90EF904C
:103960000895EF92FF920F931F937C018B010E94A9
:10397000482BF80166817781C7018A5B9F4F0E94BF
:103980000B111F910F91FF90EF9008950F931F93CC
:10399000CF93DF938C01EB010E94DB2C882359F03D
:1039A000C8010496BE010E94201AC8010E94A31BF0
:1039B0008823D9F381E0DF91CF911F910F91089572
:1039C0000F931F93CF93DF938C01EB010E94DB2CAD
:1039D000882359F0C8010496BE010E94501AC801FC
:1039E0000E94A31B8823D9F381E0DF91CF911F911F
:1039F0000F9108950F931F93CF93DF938C01EB01E9
:103A00000E94DB2C882359F0C8010496BE010E9455
:103A1000381AC8010E94A31B8823D9F381E0DF91E3
:103A2000CF911F910F9108950F931F93CF93DF9321
:103A30008C01EB010E94DB2C882359F0C80104960D
:103A4000BE010E94681AC8010E94A31B8823D9F3F3
:103A500081E0DF91CF911F910F910895EF92FF9236
:103A60000F931F93CF93DF937C01EB010E94DB2C1C
:103A7000882389F087010C5F1F4FC801BE010E9497
:103A80007815C801BE010E94351BC7010E94A31B07
:103A90008823D9F381E0DF91CF911F910F91FF909F
:103AA000EF900895EF92FF920F931F93CF93DF93C0
:103AB0007C01EB010E94DB2C882389F087010C5FDD
:103AC0001F4FC801BE010E947815C801BE010E94A7
:103AD000551BC7010E94A31B8823D9F381E0DF9106
:103AE000CF911F910F91FF90EF900895EF92FF9269
:103AF0000F931F93CF93DF937C01EB010E94DB2C8C
:103B0000882389F087010C5F1F4FC801BE010E9406
:103B10007815C801BE010E94801AC7010E94A31B2C
:103B20008823D9F381E0DF91CF911F910F91FF900E
:103B3000EF900895AF92BF92CF92DF92EF92FF92F3
:103B40000F931F93CF93DF93EC017B016A0159011F
:103B50000E94DB2C8823F9F08E010C5F1F4FC801F7
:103B6000B7010E947815C801B6010E943518C80136
:103B70000E940A16C8016EE070E00E9404178DE4EE
:103B80008A87BB86AC8683E08987CE010E94A31B0F
:103B90008823D9F381E0DF91CF911F910F91FF909E
:103BA000EF90DF90CF90BF90AF900895CF92DF92CB
:103BB000EF92FF920F931F93CF93DF93EC017B0162
:103BC0006A010E94DB2C8823E9F08E010C5F1F4FF5
:103BD000C801B7010E947815C801B6010E943518C6
:103BE000C8010E940A16C8016EE070E00E94041726
:103BF0008CE48A8781E08987CE010E94A31B8823F9
:103C0000D9F381E0DF91CF911F910F91FF90EF9059
:103C1000DF90CF900895CF92DF92EF92FF920F93B3
:103C20001F93CF93DF938C01EB01C42E8F8598896E
:103C3000892B09F04CC0025A1F4FD8015C910E55D8
:103C4000104040E020E030E0D801A15ABF4F3CC016
:103C5000ED91FC911197E20FF31F908189859817E0
:103C600081F591818A85981761F592818B859817E6
:103C700041F593818C85981721F594818D8598174E
:103C800001F595818E859817E1F40F591F4FD801E2
:103C9000ED91FC9101561040E40FF11D80818F3FA2
:103CA00011F08F5F8083015A1F4FD801ED91FC9175
:103CB0000F551040E20FF31F86819781988B8F87F5
:103CC00006C04F5F275F3F4F451710F266C054E0B4
:103CD000E52EF12CE00EF11EC701BE010E94781501
:103CE000BE01675F7F4FC7010E943518C7010E9460
:103CF0000A164C2D50E08A8990E0841B950B893080
:103D0000910514F088E090E0D82EF801818790E0CA
:103D10000DC0E92FF0E0D801AE0FBF1FEC0FFD1F63
:103D2000E40FF51F83891A968C939F5FD80119962B
:103D30002C91921770F36A8930E0CC2079F4240F2B
:103D4000351F862F90E02817390724F4C7016BE050
:103D500070E012C0C7016AE070E00EC0240F351F8A
:103D6000862F90E02817390724F4C7016CE070E033
:103D700003C0C7016DE070E00E940417C8010E94F3
:103D8000A31B8823D9F38D2DDF91CF911F910F9124
:103D9000FF90EF90DF90CF900895D801ED91FC91C6
:103DA0000484F585E02DC801BE012996AE01099570
:103DB000DD24E9CFCF92DF92EF92FF920F931F9312
:103DC000CF93DF93EC017B01D42EC52EC759DF4F73
:103DD00088819981C956D040892B59F5CD59DF4F3B
:103DE0008881C356D040882321F5CC59DF4F888184
:103DF000C456D0408823E9F4CB59DF4F8881C5569B
:103E0000D0408823B1F4CA59DF4F8881C656D040CC
:103E1000882379F4C959DF4F8881C756D040882359
:103E200041F4C859DF4F8881C856D040882309F42F
:103E300045C00E941D2FC459DF4F288139814A8116
:103E40005B81CC56D040621B730B840B950B605D7D
:103E500077408040904090F527C0DE01AD59BF4FBC
:103E60008D2D9C2D9C01F90189E001900D928150CE
:103E7000E1F78E010C5F1F4FC801B7010E94781552
:103E8000C8016D2D7C2D0E94A01ACE010E94A31B9B
:103E90008823D9F30E941D2FC459DF4F688379838B
:103EA0008A839B8381E001C080E0DF91CF911F91E5
:103EB0000F91FF90EF90DF90CF9008950E94DB2C40
:103EC000882391F3CACFCF92DF92FF920F931F9373
:103ED000CF93DF938C016B018AE295E060E071E0A3
:103EE0000E94E233D8014C91FF24C0E0D0E037C0FB
:103EF0009E01275F3F4FD8011196ED91FC911297DB
:103F0000EC0FFD1F868197818C159D0531F58AE2A6
:103F100095E06FE071E00E94E2338AE295E06F2D58
:103F20004AE050E00E94B233D8011196ED91FC9125
:103F30001297EC0FFD1F17821682108610821182D5
:103F400012821382148215821396ED91FC911497BC
:103F5000EF0DF11D108281E009C0F394E901F41620
:103F600038F28AE295E00E94EE3280E0DF91CF9154
:103F70001F910F91FF90DF90CF900895CF92DF9225
:103F8000EF92FF920F931F93DF93CF93CDB7DEB7DE
:103F900061970FB6F894DEBF0FBECDBF7C01188AC3
:103FA0001F86198A19861A861B861C861D861E8600
:103FB00065E2C62ED12CC80ED91EC6010E94751806
:103FC000882331F4C6010E949618882309F48AC117
:103FD0008E01075F1F4FC601B8010E94C01AC701BA
:103FE0008A5B9F4FB8010E9477126CC18E01075FF8
:103FF0001F4FC601B8010E94C915C601B8010E9431
:10400000C01A8F859889892B09F45AC123E630E0BC
:10401000E20EF31E9985D7018C91EDE9FFEFEE0ECC
:10402000FF1E981709F04EC124E630E0E20EF31EA1
:104030009A85D7018C91ECE9FFEFEE0EFF1E9817E1
:1040400009F040C125E630E0E20EF31E9B85D70162
:104050008C91EBE9FFEFEE0EFF1E981709F032C1CD
:1040600026E630E0E20EF31E9C85D7018C91EAE94A
:10407000FFEFEE0EFF1E981709F024C127E630E08F
:10408000E20EF31E9D85D7018C91E9E9FFEFEE0E5C
:10409000FF1E981709F016C128E630E0E20EF31E65
:1040A0009E85D7018C91E8E9FFEFEE0EFF1E981771
:1040B00009F008C1C701825A9F4FB8010E94251C10
:1040C00029E630E0E20EF31ED7011D921D927D011C
:1040D0001C92E8EFFFEFEE0EFF1ED7011D92FD01CF
:1040E0001192DF011D92FD011192DF011D92FD0170
:1040F0001082E8C0C6010E94D616882309F471C058
:10410000C601BE01675F7F4F0E94C01ADE01119693
:10411000EEE2F1E088E001900D928150E1F78AE251
:1041200095E066E271E00E94E2336F8578898AE269
:1041300095E040E150E00E9495338AE295E08E01DF
:104140000F5F1F4FB8010E94E2338AE295E0698554
:104150004AE050E00E94C4338AE295E0B8010E9430
:10416000E2338AE295E06A854AE050E00E94C43377
:104170008AE295E0B8010E94E2338AE295E06B851D
:104180004AE050E00E94C4338AE295E0B8010E9400
:10419000E2338AE295E06C854AE050E00E94C43345
:1041A0008AE295E0B8010E94E2338AE295E06D85EB
:1041B0004AE050E00E94C4338AE295E0B8010E94D0
:1041C000E2338AE295E06E854AE050E00E94C43313
:1041D000C7018A5B9F4FBE01675F7F4F0E94DA1263
:1041E00071C0C6010E94A416882339F18E01075FB1
:1041F0001F4FC601B8010E94C915C6010E948C1547
:10420000BC01C701825A9F4F0E94631FF701E280E1
:10421000F380D02E012F0DC0D701ED91FC910480C9
:10422000F581E02DC7016D2D702F0995F701E28012
:10423000F380E114F10481F745C0C6010E94BD1668
:104240008823F1F1C601BE01675F7F4F0E94C01A4B
:104250008F859889892B91F48985882379F48A85BB
:10426000882361F48B85882349F48C85882331F475
:104270008D85882319F48E858823D9F1C6010E9483
:104280008C15988B8F87C701825A9F4FBE01675F3D
:104290007F4F0E94251C16C0C601B8010E94C91597
:1042A000D701ED91FC910480F581E02DC701B801A3
:1042B0000995F701E280F380E114F10469F702C087
:1042C00080E001C081E061960FB6F894DEBF0FBEBA
:1042D000CDBFCF91DF911F910F91FF90EF90DF90B5
:1042E000CF900895C6010E94B718882309F07ECEAA
:1042F00001CFC6010E948C15BC01C701825A9F4F95
:104300000E94631FD7011296ED90FC9013978E01C7
:10431000075F1F4FD1CFEF92FF920F931F93CF9361
:10432000DF937C01EB018A010E94DB2C882361F082
:10433000C7010496BE01A8010E946317C7010E942D
:10434000A31B8823D9F381E0DF91CF911F910F91B7
:10435000FF90EF9008957F928F929F92AF92BF92BD
:10436000CF92DF92EF92FF920F931F93DF93CF9341
:10437000CDB7DEB729970FB6F894DEBF0FBECDBF1D
:104380006C01E5E28E2E912C880E991E8A5B9F4F60
:10439000B4010E941415C6010E94BE1F882309F0B3
:1043A00087C018861F82198619821A821B821C8276
:1043B0001D821E82C4018E010F5F1F4FB8010E9433
:1043C000C9157EE5E72EF12CEC0CFD1CC701B801E8
:1043D0000E94E71B882321F0C401B8010E949215B6
:1043E000C4018E010F5F1F4FB8010E94CA178823B6
:1043F00059F0C701B8010E94E71B882371F0C4017E
:10440000B8010E94351809C018861F8219861982C2
:104410001A821B821C821D821E82D60112960D9169
:104420001C911397AA24BB24772422C02F8138859E
:104430002115310559F0F801E680F780D70116966D
:104440008D919C9117972817390709F07501D801AC
:10445000ED91FC910280F381E02DC801B401099532
:10446000882311F077247394F80102811381570196
:1044700001151105D9F625E430E0C20ED31ED60190
:104480008C91EBEBFFEFCE0EDF1E882389F4A11495
:10449000B10471F0772061F4C4018E010F5F1F4FEA
:1044A000B8010E94C915C601B501A8010E948B215F
:1044B00029960FB6F894DEBF0FBECDBFCF91DF9126
:1044C0001F910F91FF90EF90DF90CF90BF90AF9032
:1044D0009F908F907F9008950F931F93CF93DF93BA
:1044E000EC018C010B5B1F4FF8018081882331F0B8
:1044F000CE010E94AB21F80110820BC0CE0185963F
:104500000E94342D882329F0F8011082CE010E94E8
:10451000AB21CE018A5B9F4F0E941D13CE010E94EA
:10452000332BDF91CF911F910F9108950F931F931C
:10453000CF93DF938C01EB010E94DB2C882359F091
:10454000C8010496BE010E94071BC8010E94A31B5C
:104550008823D9F381E0DF91CF911F910F910895C6
:104560000F931F93CF93DF93EC018B010E94DB2C01
:104570008823A9F0F80166817781CE0104960E9414
:104580007716DE011A96F80186E001900D928150AF
:10459000E1F7CE010E94A31B8823D9F381E0DF91CC
:1045A000CF911F910F910895EF92FF921F93CF9398
:1045B000DF937C01EB01142F0E94DB2C8823D1F1C7
:1045C000123059F0133081F01130D9F4898182957D
:1045D0008F70482F50E088810DC0998180E0AC0138
:1045E00040705F708A8113C08C8182958F70482FD4
:1045F00050E08B8190E0F4E0880F991FFA95E1F785
:1046000009C09C8180E0AC0140705F708D8190E0BA
:104610008F709070482B592B2E813F81C7010496D3
:10462000612F70E00E942316C7010E94A31B8823FC
:10463000D9F381E0DF91CF911F91FF90EF90089522
:10464000EF92FF920F931F93CF93DF93EC0184E0DF
:104650000E94742C882309F45FC090E0892F829512
:10466000807F8093ED008091F40081608093F4005E
:104670009F5F9F3099F7CE018A5B9F4FBE010E94DA
:104680000D130EE5E02EF12CEC0EFD1E8AE0F70175
:1046900080838AE590E00E9410028E01015A1F4F2C
:1046A000F80180839183F701808190E00E941002DD
:1046B000FE01EF59FF4F8083918340E0B701D8019D
:1046C000EF0125C0242F30E0C90113E0880F991FA6
:1046D0001A95E1F7820F931FED91FC911197E80F66
:1046E000F91F17821682108610821182128213829D
:1046F00014821582ED91FC911197E80FF91F178232
:104700001682E881F981E20FF31F10824F5FFB01EF
:1047100080814817B8F281E0DF91CF911F910F910E
:10472000FF90EF90089580E008950895CF93DF9370
:10473000EC01DB0188858823A1F5E889F9891696C3
:104740002D913C9117972115310541F08681978174
:10475000009721F02817390711F123C09C9180811F
:104760009817F9F411969C91119781819817C9F4C3
:1047700012969C9112978281981799F413969C91A6
:1047800013978381981769F414969C9114978481E8
:10479000981739F415969C918581981711F481E04A
:1047A0008887DF91CF9108951F93CF93DF93EC011A
:1047B000EE81FF81309709F46DC08085882309F46C
:1047C00069C08E858823C9F1AC81BD81ED91FC91D2
:1047D00011976A897B890488F589E02DCD014F8581
:1047E0000995182F882309F048C00E941D2F2A859B
:1047F0003B854C855D85621B730B840B950B69585B
:10480000734180409040C8F181E089871E86E8812D
:10481000F9810084F185E02DCE0160E041E050E1B6
:104820002AC01E861F860E941D2F6A877B878C8761
:104830009D8730C0410F4F872DC08985882351F552
:104840000E941D2F2A853B854C855D85621B730B5D
:10485000840B950B6958734180409040D8F081E0FB
:1048600089871E86E881F9810084F185E02DCE01DB
:1048700060E042E050E109950DC04F85242F30E003
:10488000210F311DEA89FB89828990E028173907B9
:1048900089F6C7CFDF91CF911F910895BF92CF9234
:1048A000DF92EF92FF920F931F93DF93CF93CDB7D9
:1048B000DEB762970FB6F894DEBF0FBECDBF8C0196
:1048C0007B01DC011696ED91FC911797309709F466
:1048D000E5C18085882309F4E1C1CB010E945C1900
:1048E000882309F0BEC0C7010E94C819882309F4B3
:1048F00051C018861F82198619821A821B821C8257
:104900001D821E82C701BE016F5F7F4F0E94CA17C2
:10491000D8011696ED91FC911797309709F4BEC116
:104920002F8138852115310541F0868197810097C7
:1049300021F028173907F9F0B1C1998180819817C2
:1049400009F0ACC19A818181981709F0A7C19B81B8
:104950008281981709F0A2C19C818381981709F080
:104960009DC19D818481981709F098C19E818581A0
:10497000981709F093C1D801ED91FC910084F1855D
:10498000E02DC80161E040E050E0099581E0F801C8
:10499000818787C1C7010E94E819882309F47EC175
:1049A00018861F82198619821A821B821C821D8218
:1049B0001E82C701BE016F5F7F4F0E94CA17D801D8
:1049C0001696ED91FC911797309709F467C12F81E6
:1049D00038852115310541F086819781009721F0B6
:1049E00028173907F9F05AC199818081981709F081
:1049F00055C19A818181981709F050C19B818281AC
:104A0000981709F04BC19C818381981709F046C122
:104A10009D818481981709F041C19E8185819817F5
:104A200009F03CC1C7010E94081AAC0195FF05C0FE
:104A300081E0F801868717860AC0D8011E961C926D
:104A40001E971F961C921F9781E019968C93D80190
:104A5000ED91FC910084F185E02DC80160E009959D
:104A60001FC1198A188A1A8A1A861B861C861D86F7
:104A70001E861F86C701BE01665F7F4F0E94CA1750
:104A8000D8011696ED91FC911797309709F406C15D
:104A9000288939892115310549F086819781009748
:104AA00029F02817390709F40CC1F8C09A858081CC
:104AB000981709F0F3C09B858181981709F0EEC023
:104AC0009C858281981709F0E9C09D85838198179C
:104AD00009F0E4C09E858481981709F0DFC09F85A6
:104AE0008581981709F0DAC0ECC0F8018085882329
:104AF000A9F5D8015096ED91FC91519728893989F3
:104B00002115310541F086819781009721F0281702
:104B10003907F9F0ECC09A858081981709F0E7C051
:104B20009B858181981709F0E2C09C858281981746
:104B300009F0DDC09D858381981709F0D8C09E8556
:104B40008481981709F0D3C09F858581981709F053
:104B5000CEC0F8018085882309F0C9C0C7010E9432
:104B6000A619882381F0D80118961C9218975096A0
:104B7000ED91FC915197128A50966D917C915197CD
:104B8000C7010E94C9158C2D9B2D9C0190E00AC085
:104B90008289E90FF11DE80FF11DD9018D919D0169
:104BA000838B9F5FD8015096ED91FC9151979D1595
:104BB00078F382898D0D828BC7010E948419882326
:104BC00009F46EC0D801ED91FC910680F781E02DCB
:104BD000C8010995882399F0F801A481B5818D91C8
:104BE0009C9111976681778140895189FC012689C2
:104BF0003789CD01F9010995882371F314C0F801B3
:104C0000A481B5818D919C911197668177814089AE
:104C10005189FC01E08CF18CCD0120E430E1F701F9
:104C20000995882361F381E0D80118968C9339C0E7
:104C3000F80180858823C9F09AE0E92EF12CEC0E6A
:104C4000FD1EF801A481B5818D919C91119766811B
:104C50007781FC01C08CD18CCD01A70120E030E62A
:104C6000F6010995882369F31BC08AE0E82EF12C30
:104C7000EC0EFD1EF801A481B5818D919C911197D8
:104C800066817781FC01C08CD18CCD01A70120E029
:104C900030E2F6010995882369F302C080E001C083
:104CA00081E062960FB6F894DEBF0FBECDBFCF9104
:104CB000DF911F910F91FF90EF90DF90CF90BF9009
:104CC0000895C701BE01665F7F4F0E94C915C701E5
:104CD0000E947015C82EB92EC7010E947515D82ED6
:104CE000C7010E94A619882309F403CFFECEC7018D
:104CF0000E948419882309F09BCFD2CFCF93DF93F2
:104D0000EC0189858823A1F119862A893B89C9018B
:104D1000DC01FB0189E501900D928150E1F7AA8940
:104D2000BB89EE81FF818681978117969C938E9334
:104D3000169780818C93818111968C931197828133
:104D400012968C931297838113968C931397848178
:104D500014968C931497858115968C9381E08E8799
:104D60001F860E941D2F6A877B878C879D8781E025
:104D7000DF91CF910895CF93DF93EC01EE81FF8116
:104D8000309709F495C08085882309F089C090C0C8
:104D9000CB01E3E0880F991FEA95E1F7860F971F93
:104DA00048855985480F591FFA018085282F30E022
:104DB000C901817490708134910549F4EC81FD81C1
:104DC000A081B18190962D913C9191970DC0C90120
:104DD00081729070819701F5EC81FD81A081B18194
:104DE0005C962D913C915D97CF01BA01F90109952F
:104DF000882309F45DC02E853F85C90163E0880FD3
:104E0000991F6A95E1F7820F931FE885F985E80FEE
:104E1000F91F80858E7F3EC021FF1FC0EC81FD8180
:104E2000A081B18152962D913C915397CF01BA0147
:104E3000F90109958823E1F12E853F85C90153E0E9
:104E4000880F991F5A95E1F7820F931FE885F9851E
:104E5000E80FF91F80858D7F1DC024FF1DC0AC8128
:104E6000BD81ED91FC911197068CF78DE02DCD0160
:104E7000BA0109952E853F85C90143E0880F991F26
:104E80004A95E1F7820F931FE885F985E80FF91F2E
:104E900080858F7E80870CC06F5F7F4F7F876E8796
:104EA0006E857F858A859B856817790708F470CFA2
:104EB000DF91CF910895DC0119967C936E9318973A
:104EC0001B965C934E931A97569547951D965C9347
:104ED0004E931C9740E050E020E030E00BC0189665
:104EE000ED91FC911997E20FF31F10864F5F5F4F12
:104EF000275F3F4F1A968D919C911B974817590732
:104F000070F30895DC01CB0123E0880F991F2A95E7
:104F1000E1F7860F971F1896ED91FC911997E80F0E
:104F2000F91F808586FD02C080E008958260808739
:104F30001E968D919C911F978617970708F4BC01C8
:104F40001F967C936E931E9781E00895DF92EF92F7
:104F5000FF920F931F93CF93DF937C018B01DD248E
:104F6000C0E0D0E024C0CE01E3E0880F991FEA95AD
:104F7000E1F78C0F9D1F680F791FDB0118968C914C
:104F800085FF0DC0D701ED91FC910680F781E02DE2
:104F9000C701BE010995882311F0DD24D394219621
:104FA000F70182859385C817D90708F04AC0D70151
:104FB00018966D917C9119971A962D913C911B979B
:104FC000C217D307F4F5F8014081FE0153E0EE0F5C
:104FD000FF1F5A95E1F7EC0FFD1FE60FF71F8081C9
:104FE0004817C1F5D80111969C91119781819817A6
:104FF00089F512969C9112978281981759F513960C
:105000009C9113978381981729F514969C91149776
:1050100084819817F9F415969C91159785819817B6
:10502000C9F416969C9116978681981799F417964D
:105030009C918781981771F4BFEFCF3FDB0709F090
:1050400092CF8D2DDF91CF911F910F91FF90EF9017
:10505000DF90089521963996C217D3070CF4BFCF7D
:10506000F0CF0F931F93CF93DF93EC01DB0100E0B0
:1050700020E030E025C0F90193E0EE0FFF1F9A9584
:10508000E1F7E20FF31FE60FF71F808586FF10C0E0
:10509000816080874E855F85C901622F892F421705
:1050A000530718F4CA01642F892F6E878F8701E098
:1050B0002F5F3F4F8A859B852817390708F044C02A
:1050C000688579854A855B8524173507ECF51C9141
:1050D000F90183E0EE0FFF1F8A95E1F7E20FF31F5E
:1050E000E60FF71F80811817A9F511969C9111976B
:1050F0008181981779F512969C9112978281981761
:1051000049F513969C9113978381981719F5149676
:105110009C91149784819817E9F415969C911597A2
:1051200085819817B9F416969C91169786819817E1
:1051300089F417969C9117978781981759F48FEFE8
:105140002F3F380709F097CF802FDF91CF911F9124
:105150000F9108952F5F3F4F39962417350714F2AA
:10516000F3CF0F931F93CF93DF93EC01DB0100E0AC
:1051700020E030E025C0F90193E0EE0FFF1F9A9583
:10518000E1F7E20FF31FE60FF71F808585FF10C0E0
:10519000816080874E855F85C901622F892F421704
:1051A000530718F4CA01642F892F6E878F8701E097
:1051B0002F5F3F4F8A859B852817390708F044C029
:1051C000688579854A855B8524173507ECF51C9140
:1051D000F90183E0EE0FFF1F8A95E1F7E20FF31F5D
:1051E000E60FF71F80811817A9F511969C9111976A
:1051F0008181981779F512969C9112978281981760
:1052000049F513969C9113978381981719F5149675
:105210009C91149784819817E9F415969C911597A1
:1052200085819817B9F416969C91169786819817E0
:1052300089F417969C9117978781981759F48FEFE7
:105240002F3F380709F097CF802FDF91CF911F9123
:105250000F9108952F5F3F4F39962417350714F2A9
:10526000F3CFDC01522FCB0123E0660F771F2A9585
:10527000E1F7680F791F1896ED91FC911997E60FE9
:10528000F71F2085216020871E962D913C911F9746
:105290002817390708F4C9011F969C938E931E970F
:1052A000442349F01896ED91FC911997E60FF71FEA
:1052B000808580648087552349F01896ED91FC9194
:1052C0001997E60FF71F8085806280870895FB019C
:1052D00033E0EE0FFF1F3A95E1F7DC0118968D9150
:1052E0009C911997442339F0E60FF71FE80FF91F37
:1052F0008085886006C0E60FF71FE80FF91F8085DC
:10530000877F80870895DC01FB0153E0EE0FFF1FCC
:105310005A95E1F718968D919C911997442339F08D
:10532000E60FF71FE80FF91F8085806106C0E60FC2
:10533000F71FE80FF91F80858F7E80871E968D915D
:105340009C911F978617970708F4BC011F967C93C2
:105350006E931E970895FF920F931F93CF93DF9341
:10536000DC01F62E072F10E060E070E040E050E036
:105370003DC01896ED91FC911997E40FF51F8085BB
:1053800083FF30C0EF018F2D902F9C01F90188E041
:10539000019009928150E1F71896ED91FC911997CF
:1053A000E40FF51F8085816080871896ED91FC9150
:1053B0001997E40FF51F8085877F80871E962D91B2
:1053C0003C911F97CB01E62F892F2617370718F43A
:1053D000C901E22F892F1E96EC931E971F968C937E
:1053E0001F9711E06F5F7F4F475F5F4F1A968D9158
:1053F0009C911B976817790708F4BBCF112341F0E4
:10540000ED91FC9111970084F185E02DCD01099576
:10541000812FDF91CF911F910F91FF900895CF922F
:10542000DF92EF92FF920F931F93DF93CF93CDB74D
:10543000DEB762970FB6F894DEBF0FBECDBF6C012A
:105440007B01CB010E9488178823A9F01A8A1A864B
:105450001B861C861D861E861F86188A198A8E0149
:10546000065F1F4FC701B8010E94FE1AC601B801AE
:105470000E94A627E3C0C7010E94F9188823A9F05B
:105480001A8A1A861B861C861D861E861F86188A07
:10549000198A8E01065F1F4FC701B8010E94FE1ACC
:1054A000C601B8010E943128C9C0C7010E94D8189E
:1054B0008823A9F01A8A1A861B861C861D861E86DA
:1054C0001F86188A198A8E01065F1F4FC701B8010F
:1054D0000E94FE1AC601B8010E94B128AFC0C701E0
:1054E0000E941A19882331F4C7010E943B198823AE
:1054F00009F4B3C018861F82198619821A821B828A
:105500001C821D821E82C7010E943B19882381F4E0
:10551000D6011A968D919C911B9720E030E0AC014A
:1055200013E0440F551F1A95E1F7480F591F68C043
:10553000C701BE016F5F7F4F0E94C01A8F8198859F
:10554000892B01F589818823E9F48A818823D1F4A4
:105550008B818823B9F48C818823A1F48D818823E1
:1055600089F48E81882371F4F6018285938520E089
:1055700030E0AC01B3E0440F551FBA95E1F7480F96
:10558000591F2EC0D6011696ED91FC911797908168
:105590008981981709F051C091818A81981709F083
:1055A0004CC092818B81981709F047C093818C8100
:1055B000981709F042C094818D819817F1F5958173
:1055C0008E819817D1F5D0CFD6011896ED91FC9128
:1055D0001997E20FF31F808581608087275F3F4F17
:1055E0002417350789F70FC0D6011896ED91FC9165
:1055F0001997E20FF31F808581608087275F3F4FF7
:105600002417350789F7F6011786168681E016C03C
:105610001A8A1A861B861C861D861E861F86188A75
:10562000198A8E01065F1F4FC701B8010E94FE1A3A
:10563000C601B8010E94AB2901C080E062960FB696
:10564000F894DEBF0FBECDBFCF91DF911F910F91B8
:10565000FF90EF90DF90CF900895C7010E94A917A7
:10566000882359F3D5CFCF93DF93FC01C281D38137
:105670000AC0E881F9810190F081E02DCE01099501
:105680000A80DB81C02D2097A1F7DF91CF9108958B
:10569000DC01FB0112968D919C9113979383828379
:1056A00013967C936E9312970895CF93DF93EC013A
:1056B000DB01EA81FB813097B9F0E617F70781F447
:1056C000828193819B838A830FC08A179B0739F459
:1056D00012968D919C9113979383828305C0FC0150
:1056E00082819381009789F7DF91CF91089580910E
:1056F0001004882369F490E0892F8295807F80933D
:10570000ED008091EF00807C21F09F5F9F30A1F73A
:105710009FEF892F0895382F883070F42091DE0094
:1057200081E090E002C0880F991F3A95E2F78095DA
:1057300082238093DE0008954091DF00282F30E01F
:105740002850304081E090E002C0880F991F2A95D0
:10575000E2F7809584238093DF000895382F883006
:1057600068F42091DE0081E090E002C0880F991F6C
:105770003A95E2F7282B2093DE0008954091DF0050
:10578000282F30E02850304081E090E002C0880FA0
:10579000991F2A95E2F7482B4093DF0008951F9246
:1057A0000F920FB60F9211240F900FBE0F901F9003
:1057B00018951F920F920FB60F920BB60F921124ED
:1057C0000F931F932F933F934F935F936F937F9309
:1057D0008F939F93AF93BF93EF93FF938091EC00D0
:1057E000807F803F09F467C00091ED008091EC005C
:1057F000807F8093ED001091EC008091EE0086FF99
:105800003DC08091EE001092EE001092EF0086E70E
:1058100095E00E94B72E009751F00E94FB2D86E77D
:1058200095E00E94C92E8091EF0080643FC0312F27
:1058300032953F70383070F42091DE0081E090E0C6
:1058400002C0880F991F3A95E2F7809582238093D2
:10585000DE0011C04091DF00232F30E0285030409F
:1058600081E090E002C0880F991F2A95E2F78095A9
:1058700084238093DF00109210041AC08091EE0000
:1058800085FF16C086EA95E00E94982E009731F0B9
:105890000E94532D86EA95E00E94AB2E8091EE0087
:1058A0001092EE008091EF00807180688093EF008D
:1058B0000093ED0004C08091DA008093DA00FF913C
:1058C000EF91BF91AF919F918F917F916F915F9178
:1058D0004F913F912F911F910F910F900BBE0F9001
:1058E0000FBE0F901F901895982F883010F080E011
:1058F00008958091D80081608093D800E3E09E9F56
:10590000C0011124FC01EC51FD4FE491E093E20051
:10591000FC01EB51FD4FE491E093E3008A519D4F70
:10592000FC0184918093E4001092DA0080EB809374
:10593000DB0087EC8093E5008FEF0E94E22C86EA83
:1059400095E063E04CE755E00E94872E86E795E0FE
:1059500061E048E655E00E94872E90E020E9892F1B
:105960008295807F8093ED001092EE001092F300FC
:105970001092F2001092F1001092F0001092F700D5
:105980001092F6001092F5001092F400953018F085
:105990002093EF0002C01092EF009F5F9F30F9F656
:1059A00082E08093D8008FE78093DF008FEF8093B1
:1059B000DE0081E0089586E795E00E948F2E91E059
:1059C00089270895982F8F30D0F08F3F11F080E015
:1059D00008951092DF001092DE0090E0892F8295EA
:1059E000807F8093ED008091EF001092EF00809116
:1059F000EE001092EE009F5F9F3081F733C080E889
:105A00008093D8008091D90083FDFCCF1092D800FC
:105A10008091D90082FDFCCF892F8295807F809371
:105A2000ED008091EE001092EE001092EF00892FB1
:105A30000E948B2B2091ED0090E0892F8295807F32
:105A40008093ED008091EF008093EF009F5F9F3087
:105A5000A1F72093ED0082E08093D8008091D900D7
:105A600082FFFCCF81E008950F931F93182F092F19
:105A700086EA95E00E94B72EAC01009711F480E011
:105A80000FC0812F902F9C01D901FA018EE0019067
:105A90000D928150E1F786EA95E00E94C92E8FEFC2
:105AA0001F910F9108951F93DF93CF9300D000D0E3
:105AB000CDB7DEB7BC019091EF00892F8F70DB016D
:105AC00015968C93159714961C9194FF2AC0FE018D
:105AD000319619828091F10081838091F200828356
